:020000040800F2
:1000000058070020C1010008C9010008CB01000801
:10001000CD010008CF010008D10100080000000058
:10002000000000000000000000000000D3010008F4
:10003000D501000800000000D7010008CD18000815
:10004000DB010008DB010008DB0100080000000004
:1000500000000000DB010008DB010008DB010008F4
:10006000DB01000800000000DB010008DB010008E4
:10007000DB01000800000000DB010008DB010008D4
:10008000DB010008DB01000800000000DB010008C4
:10009000DB0100080000000000000000000000007C
:1000A000000000000000000000000000DB0100086C
:1000B000DB010008DB010008DB010008DB010008B0
:1000C00000F002F800F053F80AA090E8000C824417
:1000D0008344AAF10107DA4501D100F048F8AFF2F4
:1000E000090EBAE80F0013F0010F18BFFB1A43F016
:1000F000010318471C2100003C210000103A24BFD6
:1001000078C878C1FAD8520724BF30C830C144BF7C
:1001100004680C60704700000023002400250026BE
:10012000103A28BF78C1FBD8520728BF30C148BF5A
:100130000B607047662902F01E80642900F0288158
:10014000732900F06C84002070471FB59DE8030000
:1001500000F098F900F06DF900F06AFC040000204E
:10016000002101F0C3FDE0601FBD10B510BD00F01F
:100170007DFD1146FFF7E9FF01F0CEFC00F09BFD8D
:1001800003B4FFF7F2FF03BC00F00CFE0B49D1F8FB
:1001900000C04A685CF8043B1068184442F8040B3D
:1001A0008C4528BFA1F1DC0C8A4228BFA1F1DC02FA
:1001B000C1F800C04A6020F000407047F000002005
:1001C0000948804709480047FEE7FEE7FEE7FEE7EB
:1001D000FEE7FEE7FEE7FEE7FEE7FEE70448054927
:1001E000054A064B7047000095190008C100000839
:1001F0005801002058070020580300205803002011
:1002000070B5064600F022F9056806F10B0020F0F3
:100210000704B4429CBF002070BD2B466A68BAB187
:100220001068A04210D304F1080188423CBF506816
:10023000586007D35168101941601168091B0160AB
:1002400058601460101D70BD13465268002AE7D133
:100250002146284600F002F90028DED170BD70B5B5
:100260000446051F00F0F2F80068002C14BF446833
:1002700070BD002C18BFAC423CBF20466468F8D368
:1002800001680A18AA4218BF456003D12A680546CA
:100290001144016028684119A1421CBF6C6070BD07
:1002A0006168696021680844286070BD0FB41CB59E
:1002B000074B06AA7B4469460090059800F085FB31
:1002C0000020694600F094FB1CBC5DF814FB0000A4
:1002D000390700002DE9F0410E4604460020206257
:1002E0002046E168884730B3252805D0D4E90121AC
:1002F0009047206A401CF2E7E168204600278847C3
:10030000050018D0A5F14100192802D820354FF476
:1003100000673246294620462760FFF70BFF40B1B1
:10032000012804D0F61D26F007060836D8E7361D4A
:10033000D6E72846DAE7206ABDE8F08170B50C46BA
:100340000546012A05D02878800600D5EA690023F1
:1003500002E0012305E05B1C934202D2E05C00282E
:10036000F9D1A869E618C01AA861286A1844286259
:100370002846AFF3008004E0D5E9012114F8010B11
:100380009047B442F8D32846AFF3008070BD000018
:100390002DE9F0410646002410687529314616A55E
:1003A00010D0AFF30080002802DA404213A507E026
:1003B00031688A0701D512A502E0490704D511A5C5
:1003C000012401E0AFF3008000210A2206F1240796
:1003D00009E0B0FBF2FCB0FBF2F302FB1C00303092
:1003E00078541846491C0028F3D123462A46304643
:1003F000BDE8F04100F07CB8000000002D000000D6
:100400002B000000200000000B4910B5A1F17C0278
:100410000A4CC2E93712372106E000EB104342F8DC
:100420002130074B00FB03400B1EA1F10101F4DC5E
:1004300010BD0120E8E7000090000020E119D66619
:10044000CD0D0100704770477047000000487047AD
:1004500000010020704770477047704738B5044668
:100460000A4600206946AFF30080002808BF38BD67
:1004700002460099204600F0DFFA012038BD012035
:1004800000F0ECBBF8B5AFF30080054600200C4649
:10049000102000BF0646A819A0420DD93246694671
:1004A0000020AFF30080070008BF00F0D7FB0098E2
:1004B000A04218BF0546C419FFF7C8FF05600746EC
:1004C000F01D20F007004619284600F00AF8B44253
:1004D00008BFF8BDA21B31463868BDE8F84000F0FF
:1004E000ABBA00210160C0E90110704710207047CD
:1004F0002DE9F0470D4699469246044600F124083E
:100500000168880604D5E06921F01001216000E04F
:100510000120A84201DD471B00E00027A1697A19EC
:1005200002EB0900081AA0612078C00602D4204618
:10053000AFF30080002608E0D4E901211AF8060094
:100540009047206A401C761C20624E45F4DB2078E0
:10055000C0060AD52046AFF3008006E0D4E90121A9
:1005600030209047206A401C2062381EA7F1010706
:10057000F4DC07E0D4E9012118F805009047206A6F
:10058000401C2062281EA5F10105F3DC2046AFF3D4
:1005900000802078000602D50220BDE8F087012007
:1005A000FBE770472DE9FF4F0C461E464FF0FF3723
:1005B0008BB0D2E90001DDF860800A908A46C1F371
:1005C0000A5505B93D46002108464FF00000BAF132
:1005D000000F00F4400005DA00EB80004FF440010A
:1005E00001EA50004FEA9059B9F1010F00DDB94618
:1005F0000A9850EA4A000ED044F61050A5F2FF3592
:1006000045432F14B8F1000F1ED07542291E1EDD80
:10061000C9F100021CE0B8F1010F4FF0000001D059
:10062000302103E0F24305E02154401CB042FBDBE3
:1006300030460022002121540B99C1F80880C1E9FD
:1006400000200FB0BDE8F08FBD1B6D1CDEE74A46F1
:1006500000DA694206A800F08FFA06AB93E80700BB
:1006600003AB83E8070050460A9900F0C1FB8DE810
:100670000700A0F500501F3800900398002D0ADDF8
:1006800042F21F014A460844002303A9039068462A
:1006900000F02AFE09E0A0F500504A461F3800236A
:1006A00003A90390684600F034FE8DE807000004BB
:1006B000000C03D04FF0FF30410800E01046B8F1C5
:1006C000000F03D00022009215461EE0751E05D4CF
:1006D00000F0CCF9303262556D1EF9D5B3460122D7
:1006E000084302D000227F1C04E02078302801D18A
:1006F00000227F1E002A099784D01DE0112D07DA01
:1007000000F0B4F9303262556D1C50EA0102F5D1A7
:10071000084302D00098C8B10EE00021681E05E031
:10072000235C625C63542254401E491C8142F7DB07
:10073000AB46A81B401E0990002004F80B000B9844
:10074000099AC0F80880C0E9002B7AE711264FF01B
:10075000000857E72DE9F04F88460446D21D22F0E5
:10076000070191B0D1E90001CDE90A0101F032F9A8
:1007700002460B98C00F01D02D2007E020688107AA
:1007800001D52B2002E0202101EAC000032A0990B4
:1007900001D0072A05DB03464146204600F0ACF9AC
:1007A0000BE12078800601D5E06900E00620B8F171
:1007B000650F814606D0B8F1660F18D0B8F1670F03
:1007C00070D131E00020B9F1110F009001DB11234D
:1007D00001E009F101030AAA01A90CA8FFF7E2FE52
:1007E000DDE90C70002609F10105834647E0012090
:1007F0004B4600904FF000470AAA01A90CA8FFF74A
:10080000D1FEDDE90DB00C995D46002610B909F165
:1008100001000D18B9EB050003D4C0F1FF3609F152
:100820000105A5EB09002BE0B9F1010F01DA4FF04A
:1008300001090020B9F1110F0090484601DD112394
:1008400000E003460AAA01A90CA8FFF7ABFEDDE908
:100850000C704D4600268346207800070AD4AB452D
:1008600000DA5D4601A8012D04DD411911F8011CD3
:10087000302907D04F4502DA17F1040F04DA0120BE
:1008800082460FE06D1EEEE7002F02DCED1B3E44BA
:1008900003E0781CA84200DD7D1CB81B00F1010AB2
:1008A0004FF000472078000703D4AA4501DB4FF042
:1008B000FF3A0021B7F1004F0DF143088DF84310C6
:1008C00024D002202B23002F01DA7F422D230A217E
:1008D000021EA0F1010000DC5FB197FBF1FC97FB69
:1008E000F1F201FB1C7C17460CF1300C08F801CD2D
:1008F000EEE7A8F1010003702188090501D5452123
:1009000000E06521A0F1010800F8011C09980FA979
:10091000A1EB0807FF1D00B10120411901EBEA70AE
:10092000A1693844081A401EA0612078C00602D48C
:100930002046AFF30080099828B1D4E901219047FF
:10094000206A401C20622078C00622D52046AFF3E2
:1009500000801EE0002E04DBB34502DD01A8805DAF
:1009600000E03020D4E901219047206A401C206239
:10097000761CAAF101005FEA000A0AD100F058F8DB
:10098000C0680168405CD4E901219047206A401C9E
:100990002062281EA5F10105DCDC07E0D4E9012175
:1009A00018F8010B9047206A401C2062381EA7F1FE
:1009B0000107F3DC2046AFF30080032011B041E6CD
:1009C00001694A1C02610878704700B58FB0CDE913
:1009D00001310021059105497944CDE90310114603
:1009E0006846FFF777FC0FB000BD0000E5FFFFFF92
:1009F0000A6802F8010B0A60704710B5436913B129
:100A0000AFF3008001E0FFF799FC012010BD1278E0
:100A100000F124010A7000224A700122EDE71168FA
:100A20004FF0FF32E9E7000000487047F80000206F
:100A30000048704718010020034640688C46002893
:100A400018BF88423CBF03464068F8D31868184472
:100A5000884207D00CF1030020F00700001D411A66
:100A6000521A0146081D0A60FFF7F9BB30B5B0F114
:100A70000A024FEA900E71F100034EEA817EB0EB5C
:100A80000E0061EB91014FEA101E4EEA017E10EB61
:100A90000E0041EB11114FEA102E4EEA016E10EBE1
:100AA0000E0041EB11214FEA104E4EEA014E10EBC1
:100AB0000E0041EB1141401841F100014FEAD00016
:100AC00040EA41704FEAD10110EB80054FEA810402
:100AD00044EA907444EB01046D1944EB0404521B86
:100AE000A3414FF0000348BF0A3200D530BD401C7F
:100AF00041F1000130BD00002DE9F0411F460446E0
:100B000003260168072A01F4006004DB08B116A57A
:100B100005E016A503E008B115A500E015A521F034
:100B200010002060A069C01EA0610FB1401EA0612E
:100B30002046AFF300804FB1D4E9012138469047F9
:100B4000206A401C2062C01C206206E0206AFAE78E
:100B5000D4E9012115F8010B9047761EF8D2204602
:100B6000AFF30080BDE8F0814E414E006E616E0033
:100B7000494E4600696E66002DE9F04781461646EB
:100B80008AB0354878440DC88DE80D003248784465
:100B9000801C03AC0DC884E80D0041F69B3008446E
:100BA000372190FBF1F290FBF1F5A5F1800501FBF7
:100BB00012041B3C02D56442012000E00020DFF853
:100BC00098A080460027FA44AAF1BE0A0EE0E0078A
:100BD0000AD03246684607EB470101230AEB810140
:100BE00000F097FB8DE8070064107F1C002CEED10D
:100BF000194F7F44AE3F19E0E80715D007EB04100A
:100C00000DF1180A90E80E008AE80E00C068F04264
:100C100001D1981908903246012306A903A800F0D3
:100C200078FB03AB83E807006D10641C002DE3D153
:100C30004FF0010332466946B8F1000F03A802D015
:100C400000F052FB01E000F064FBC9E90001C9F8C3
:100C500008200AB0BDE8F0877016000010B500F05B
:100C600039F8BDE8104000F02FB870477546FFF71F
:100C7000DBFEAE4605006946534620F00700854678
:100C800018B020B5FFF7AAFABDE820404FF00006E3
:100C90004FF000074FF000084FF0000B21F0070164
:100CA000AC46ACE8C009ACE8C009ACE8C009ACE8A7
:100CB000C0098D46704710B50446AFF3008020464A
:100CC000BDE81040FFF75CBA002801D000F06AB818
:100CD0007047000010B5012805D0002103A000F0E6
:100CE00067F8012010BD09A1F8E7000053494752F9
:100CF000544D454D3A204F7574206F6620686561EC
:100D000070206D656D6F7279000000003A204865B3
:100D10006170206D656D6F727920636F727275708E
:100D2000746564004FF0013C50F8042B51F8043B0B
:100D30009A4221D1A2EB0C03934313EACC1317D1AF
:100D400050F8042B51F8043B9A4215D1A2EB0C0346
:100D5000934313EACC130BD150F8042B51F8043B06
:100D60009A4209D1A2EB0C03934313EACC13DBD0D4
:100D70004FF00000704700BFD01A01BAB1FA81F1FC
:100D800001F0180122FA01F0CB40C1F12001DBB2E1
:100D9000C0B2C01A2CFA01F3D11A914311EAC3115F
:100DA000E6D1704701491820ABBEFEE726000200DD
:100DB00070B505460C460A2000E06D1C00F011F8E5
:100DC00035B128780028F8D102E0641C00F009F859
:100DD00014B120780028F8D1BDE870400A20AFF3A4
:100DE000008008B569468DF800000320ABBE08BD41
:100DF0005FEA400C08BF91F0000F4FEA8C234FEAE6
:100E0000C12243EA51514FEA1C5018BF00F5F0408F
:100E10004FEA300018BF41F000415FEA6C5C00F01F
:100E20002980BCF1FF3F08BF40F080407047130CA1
:100E300006BF12044FF0100C4FF0000C130E04BF4D
:100E400012020CF1080C130F04BF12010CF1040C78
:100E5000930F04BF92000CF1020CD30F04BF520099
:100E60000CF1010C11464FF00002A0F11F00A0EBA5
:100E70000C00704711F0004F08BF704731F000417F
:100E80003FF4D5AF0B0C06BF09044FF0100C4FF028
:100E9000000C0B0E04BF09020CF1080C0B0F04BF71
:100EA00009010CF1040C8B0F04BF89000CF1020C3A
:100EB000CB0F04BF49000CF1010CCCF12003A0EBD7
:100EC0000C0022FA03F302FA0CF241EA030100F1EA
:100ED0000100704720F07F4C80EA030023F07F4739
:100EE000ACEB070303F57C5300F0004003F1FF0374
:100EF0002DE980494FEA154B09B44FEA144325EA1E
:100F00000B4E24EA03480FF2042606EB1327490888
:100F10003E785FEA320203FB0667C7F5000707FB6E
:100F200006F64FEA54374FEAD64606F1020607FBAB
:100F3000066CCCF1005C4FEA1C472CEA074C07FB1F
:100F400006F40CFB06F504EB15464FEA961634BF83
:100F500000204FF000404FEAD13706FB07FC4FEA74
:100F60001C4C0CFB0BF7D21B03FB0CF761EB0701CE
:100F70000CFB0EF7B0EB074072EB17420CFB08F7C7
:100F800034BFA2EB0742B2EB074261EB17414FEAD5
:100F90000C444FEA910706FB07FC4FEA1C4C0CFB84
:100FA0000BF7B0EBC74072EB573203FB0CF734BFC3
:100FB000A2EBC742B2EBC74261EB57310CFB0EF715
:100FC000B0EBC70072EB57720CFB08F734BFA2EB13
:100FD000C702B2EBC70261EB5771039F4FEA816111
:100FE00041EA921104EBCC044FEAD1374FEA826216
:100FF00006FB07FC42EA90124FEA80604FEA1C4C65
:101000000CFB0BF7D21B03FB0CF761EB07010CFB8E
:101010000EF7B0EB074072EB17420CFB08F734BF3A
:10102000A2EB0742B2EB074261EB17414FEA8C5546
:101030004FEA910704EB9C2406FB07FC4FEA1C4C8B
:101040000CFB0BF7B0EBC74072EB573203FB0CF70E
:1010500034BFA2EBC742B2EBC74261EB57310CFB86
:101060000EF7B0EBC70072EB57720CFB08F734BFFA
:10107000A2EBC702B2EBC70261EB577115EB4C252F
:101080004FEA816141EA92114FEA82624FEAD13719
:1010900042EA901206FB07FC44F100044FEA80602C
:1010A0004FEA1C4C0CFB0BF7D21B03FB0CF761EB5C
:1010B00007010CFB0EF7B0EB074072EB17420CFB7D
:1010C00008F734BFA2EB0742B2EB074261EB1741CE
:1010D00015EB1C154FEA813141EA92414FEA823209
:1010E00042EA90424FEA80304FEA0C7644F1000425
:1010F00048EA03434EEA0B484FF0000EB2EB080CEF
:1011000071EB030724BF624639464EEB0E0E4FF0DB
:10111000000B0018524149414BEB0B0BB2EB080C92
:1011200071EB03077BF1000B24BF624639464EEB9F
:101130000E0E4FF0000B0018524149414BEB0B0BC8
:10114000B2EB080C71EB03077BF1000B24BF624686
:1011500039464EEB0E0E51EA020718BF46F0010663
:1011600016EB0E7655F1000254F1000103D5BDE8EF
:101170008901BDE80088BDE88901BDE80048B619CD
:10118000524141EB0101A3F10103704780807F7E52
:101190007D7C7B7A797877767675747372717170ED
:1011A0006F6E6E6D6C6C6B6A6A696868676666659F
:1011B0006464636362616160605F5F5E5E5D5D5C2D
:1011C0005C5B5B5A5A59595858575756565555559E
:1011D0005454535352525251515050504F4F4F4EFE
:1011E0004E4D4D4D4C4C4C4B4B4B4A4A4A4949494C
:1011F000484848474747474646464545454444448E
:10120000444343434342424242414141002B9C46B6
:1012100030D477002BD01CB54FEA370703B44FF01A
:1012200010004FF01001BAF1000F06D0BCF1000F12
:10123000DCBF40F0080040F008014FF000000FBC98
:10124000BDE810400BF1010BBBF1010F08BF5FEAD5
:10125000170722BF12F1010211F101014FF0004105
:1012600043F1000300F0004043EA00007047F9D367
:101270005708D0E746EA064613F1400F4FEA1646F4
:101280001FDD13F1200FDFBF16430A460021203374
:101290005B42BED0C3F1200746EA064602FA07F7D2
:1012A0004FEA164646EA0706C3F1200722FA03F280
:1012B00001FA07F721FA03F14FF0000342EA0702AF
:1012C000A7E746EA020646EA06464FEA164646EA17
:1012D0000106BCBF46EA0646360C4FF000034FF04D
:1012E00000024FF0000194E72DE9804C9A469346A6
:1012F00070B491E8380007C831EA400C48BF34EABE
:10130000430C03D5FFF7E6FDFFF780FFF0BCBDE817
:10131000008C2DE9804C9A46934670B491E83800D1
:1013200007C810F0804F08BF13F0804F03D100F0C2
:1013300005F8FFF76BFFF0BCBDE8008C20F07F479D
:1013400080EA030023F07F4C07EB0C03A3F57C53EA
:1013500000F00040A3F1FE0392F0000F00F0B38014
:1013600095F0000F00F077802DE901494FEA114018
:101370004FEA144621EA004800FB06FC24EA06472F
:1013800008FB06F607FB08F800FB07F718EB064812
:101390004CEB164C4FEA124B18EB07484FEA154638
:1013A0004CEB174022EA0B4E0BFB06FC25EA0647E6
:1013B0000EFB06F607FB0EFE0BFB07F71EEB064EB9
:1013C0004CEB164C4FF000061EEB074E4CEB174B48
:1013D00018EB0B0840F1000018EB0E0B58EB00085F
:1013E00040F100008F1A4FF000013CBFC943661B5B
:1013F00014BFB5EB040C00213CBFC943F61B4FEAF8
:1014000017444EEA8E0E27EA04454FEA1C4704FBB8
:1014100007622CEA074C05FB07F70CFB05F604FBFB
:101420000CFC16EB074642EB174216EB0C4642EB60
:101430001C421BEB060658EB0202414146EA9E069F
:1014400001D5BDE80189B619524141EB0101A3F173
:101450000103BDE801894FEA14454FEA114724EA28
:10146000054621EA074C05FB07F406FB07F70CFBD2
:1014700006F105FB0CFC11EB074144EB17444FEA66
:10148000124711EB0C4144EB1C4422EA074C05FBCC
:1014900007F206FB07F70CFB06F605FB0CFC16EB48
:1014A000074642EB174216EB0C4642EB1C456A1806
:1014B00054F1000148BF7047B619524141EB010198
:1014C000A3F10103704795F0000F37D04FEA1142A6
:1014D0004FEA144721EA024624EA074C02FB07F1CF
:1014E00006FB07F70CFB06F402FB0CFC14EB0744AD
:1014F00041EB17414FEA154714EB0C4441EB1C41FB
:1015000025EA074C02FB07F506FB07F70CFB06F67E
:1015100002FB0CFC16EB074645EB174516EB0C4699
:1015200045EB1C42121951F1000148BF7047B61932
:10153000524141EB0101A3F1010370474FEA144509
:101540004FEA114724EA054621EA074C05FB07F15B
:1015500006FB07F70CFB06F24FF0000605FB0CFC40
:1015600012EB074241EB174112EB0C4251EB1C41CD
:1015700048BF7047921841EB0101A3F10103704786
:1015800010B50121080600F091F900200549887086
:10159000087201208872487220200880024800F0FA
:1015A00051F810BD0800002000000C4003490860FD
:1015B00000BF024909680029FBD1704700000020E4
:1015C00000200E49C86040F60400486000BF0B4888
:1015D000006800F002000228F9D14FF48270074938
:1015E000C8600748806B40F00700054988630846DB
:1015F000806B40F0380088637047000000000240B4
:1016000000800D4010B50121C80500F04FF9012000
:101610000A498870002008720120887248720420EC
:101620000880074800F00EF80421054800F0EEF8A5
:101630000249034800F006F810BD00000800002031
:1016400000800B402DE9FE4F4768D0F808C0D0F865
:101650000C80D0F81090D0F814A0CDF808A0D0F8E5
:1016600018A0CDF804A0D0F81CA0CDF800A000224E
:10167000012303254FF001160C885FE004F0010AF6
:10168000BAF1000F55D027EA030A91F802B00BFA1D
:1016900002FB4AEA0B0791F808A04FEA420B0AFA4C
:1016A0000BFA2CEA050B4AEA0B0C28EA030A91F81C
:1016B0000AB00BFA02FB4AEA0B0829EA060A91F87B
:1016C00003B002F1100E0BFA0EFB4AEA0B0A91F876
:1016D00004B00BFA02FB4AEA0B09DDF808A02AEA7B
:1016E000060A91F805B00BFA0EFB4AEA0B0A91F8CC
:1016F00006B00BFA02FB4AEA0B0ACDF808A091F8F3
:1017000009A04FEA420B0AFA0BFADDF804B02BEA03
:10171000050B4AEA0B0ACDF804A0DDF800A02AEA7E
:10172000030A91F807B00BFA02FB4AEA0B0ACDF85C
:1017300000A05B00AD007600521C6408002C9DD117
:10174000DFF8C4A0504502D14FF01F0A01E04FF06E
:10175000000A27EA0A0AC0F804A0DFF8ACA0504546
:1017600002D14FF01F0A01E04FF0000A2CEA0A0AEA
:10177000C0F808A0DFF890A0504502D14FF01F0A32
:1017800001E04FF0000A28EA0A0AC0F80CA0DFF8CE
:1017900078A0504502D14FF01F0A01E04FF0000A37
:1017A00029EA0A0AC0F810A0DFF85CA0504502D16F
:1017B0004FF01F0B01E04FF0000BDDF808A02AEA04
:1017C0000B0AC0F814A0DFF840A0504502D14FF03A
:1017D0001F0B01E04FF0000BDDF804A02AEA0B0A12
:1017E000C0F818A0DFF820A0504502D14FF01F0B21
:1017F00001E04FF0000BDDF800A02AEA0B0AC0F868
:101800001CA0BDE8FE8F000000000C400268054BE4
:10181000984201D11F2300E000230B439A4302604A
:101820007047000000000C400268054B984201D14F
:101830001F2300E000239A430A4302607047000020
:1018400000000C40410141EA801141EAC01141EA27
:10185000002141EA802141EAC02141EA003141EA08
:10186000803141EAC03141EA004141EA404141EA68
:10187000804141EAC04141EA005141EA405141EA18
:10188000805141EAC05141EA006141EA406141EAC8
:10189000C06141EA407141EA8071034AD269114353
:1018A000014AD161704700000000024029B1064A98
:1018B000D2690243044BDA6104E0034AD2698243ED
:1018C000014BDA61704700000000024004480068E4
:1018D00020B103480068401E0149086070470000BD
:1018E000000000204FF0E020406941F63F710843BE
:1018F0004FF0E02148610846006940F007000861A8
:101900007047000030B5204CE46804F00204022C5B
:1019100001D11E4800E01D481B4CE46804F001049E
:1019200004B140080146184CE46804F00404042C97
:1019300005D1154C6468C4F30324631C5943124C4D
:10194000E468C4F3012424B1012C06D0022C13D185
:101950000DE00E4C0E4D2C6013E00B4CE468C4F30C
:101960000314641CB1FBF4F2094C226009E04FF44B
:101970000044074D2C6004E049F64044044D2C60BF
:1019800000BF00BF30BD00000000024000127A001E
:101990000400002000B50D480D49C8610846C06824
:1019A0000020C860084640680020486008468068FB
:1019B00000208860084600690020086108464069E8
:1019C00000204861FFF79EFF00BD000010000008E6
:1019D00000000240490050EAC12018BF04204A0D0F
:1019E00018BF40F0010040F2FF72B2EB515F08BF38
:1019F00040F00200012808BF052070472DE9FE4F86
:101A000081464D464FF0000A00200290A800FEF7E4
:101A1000F7FB0746A800FEF7F3FB8046324801902B
:101A200000240AE0A800FEF7EBFB47F82400A8001A
:101A3000FEF7E6FB48F82400641CAC42F2DB00240D
:101A40001FE000261AE0FEF7A1FB009000F0BAFAB2
:101A50008346019900F0F4F957F8241041F8260064
:101A6000FEF794FB009000F0ADFA8346019900F078
:101A7000E7F958F8241041F82600761CAE42E2DB64
:101A8000641CAC42DDDB002414E000260FE058F8B3
:101A9000242052F8261057F8242052F8260000F08F
:101AA0006DF98346514600F069F98246761CAE42D4
:101AB000EDDB641CAC42E8DBCDF808A0002408E0B4
:101AC00057F82400FEF7CBFB58F82400FEF7C7FBBD
:101AD000641CAC42F4DB3846FEF7C1FB4046FEF71F
:101AE000BEFB0298BDE8FE8FF902155030B50146E5
:101AF000002000220B4605E000EB800404EB4014BC
:101B00006018521C9A42F7D3024CB0FBF4F504FB68
:101B1000150030BDA086010098B00120FFF792FEAD
:101B2000FFF7E0FEFFF74CFDFFF76CFDFFF728FD28
:101B300004211E48FFF778FE4FF47A70FFF736FD58
:101B400004211A48FFF762FE00BF052000F05CF890
:101B50000746FFF7CBFF0446062000F055F807467E
:101B6000FFF7C4FF054604211048FFF75DFE0A2079
:101B7000FFF744FF81460A2000F046F80646AC42D3
:101B800007D023460AA20DA104A80095FEF78EFBFC
:101B90000AE0484600F0C6F80BA28DE8430017A102
:101BA00004A8FEF783FB00BFCFE7000000800B40D6
:101BB0006B657920213D206B6579310025732025E7
:101BC0006420256400000000D0A1D183D0BCD0BC2B
:101BD000D18B20D0B2D181D0B5D18520D18DD0BBD1
:101BE000D0B5D0BCD0B5D0BDD182D0BED0B220D07F
:101BF000BCD0B0D182D180D0B8D186002573202549
:101C000066202564000000002DE9F05F81464D4606
:101C10004FF0000BA800FEF7F3FA0746A800FEF706
:101C2000EFFA804600240AE0A800FEF7E9FA47F838
:101C30002400A800FEF7E4FA48F82400641CAC4233
:101C4000F2DB002413E000260EE0601C00F03DF8FB
:101C500057F8241041F82600B01C00F036F858F868
:101C6000241041F82600761CAE42EEDB641CAC4228
:101C7000E9DB00240FE000260AE057F8240050F8C2
:101C8000260058F8241051F8261008448344761C86
:101C9000AE42F2DB641CAC42EDDB4FF0000A09E01F
:101CA00057F82A00FEF7DBFA58F82A00FEF7D7FAB1
:101CB0000AF1010AAA45F3DB3846FEF7D0FA40469E
:101CC000FEF7CDFA5846BDE8F09F30B50246002435
:101CD0000123002107E0012901DC084602E0E018A9
:101CE0001C460346491C9142F5DB30BD10B5002966
:101CF0000AD00878002807D005487844FFF712F882
:101D0000002801D0002010BD0248784410BD00001A
:101D1000360500002E0500000808A0F500114FEA66
:101D20003101704743004FEAD30C4FEA3C0C43406B
:101D30001FBF40070CF1605113F0FE4F70471CF0BD
:101D4000006F03D100200CF0004170470CF00043FD
:101D500043EA507010B540EACC0000F04BF900BFE8
:101D6000000000924FEA0001FFF7D6BF4FF000419C
:101D70004FF00000A1F500217047000090EA010F2C
:101D800048BF81F0004100F18881421A3CBF801AAF
:101D900089184FEAD0524FF07F4C1CEA410FA2EB5A
:101DA000D15318BF9CEA026F00F03B804FF0004C0B
:101DB0004CEA00204CEA012121FA03FC10EB0C0C48
:101DC0001ED202F1FF325FEA1C2040EBC25038BF46
:101DD00070471CF07F0F4FEA400C18BFBCF17F4FDB
:101DE00038BF7047C3F12003994008BF20F00100BD
:101DF000BCF17F4F38BF7047A0F1C04000F040B940
:101E00004FEA3C00000A40EBC25028BF1CF0FF0F15
:101E10004FEA400CE6D018BFBCF17F4F38BF704787
:101E2000EAE79CEA026F05D010EA5C0F08BF00F0F9
:101E30000040704710B500F0DDF800BF64FBBE3E07
:101E40004FF47F0C1CEAD0121EBF1CEAD11392EA99
:101E50000C0F93EA0C0F00F0858090EA010F48BF49
:101E600042F4807240F4000C41F400002CF07F41F9
:101E700020F07F4000B58142A2EB03020FF2081C64
:101E8000ACEB504EC0F100009EF800E04FEA4E0E61
:101E900000FB0EFC38BF49004FEA2C1C02F5FA0289
:101EA0000CFB0EF34FEACE1E4FEA112C4FEAC12174
:101EB0000EEB635E42EB22420EFB0CFC4FEA1C531E
:101EC00000FB03114FEA112C4FEA01310EFB0CFC11
:101ED0004FEADC4C00FB0C11C14228BF09184CEB47
:101EE00003335DF804EB10EB410143EBC250B2F554
:101EF0007C0F38BF704729D512F0F00F1CBF00F1DE
:101F0000C04000F00040704700818283848586874E
:101F100088898B8C8D8E8F919293959697999A9CA8
:101F20009D9FA0A2A3A5A7A8AAACAEB0B2B3B5B717
:101F3000B9BCBEC0C2C5C7C9CCCED1D4D7D9DCDFED
:101F4000E2E6E9ECF0F3F7FAFE0000004FEA400C9D
:101F50000CF1807CBCF17E4F28BF7047B0F1C040CF
:101F600000F08EB890EA010F0CEAD11348BF42F49A
:101F70008072624538BF634507D213F47F0F16D0D5
:101F800080EA010000F00040704710B500F032F820
:101F9000097EFC3E00F005B880EA010000F0004038
:101FA000704780EA010000F0004000F069B812F4C8
:101FB0007F0F04BF0248704780EA010000F060B85C
:101FC0000000C07F10F0004148BF4042B0FA80F3EB
:101FD00010FA03F2C3F19D030BD051EAC35101EB98
:101FE0001220530638BF704700F1010008BF20F0EF
:101FF000010070470EF1020E2EF0030E5EF8044B46
:10200000244204D44FEA4102B2F17F4F11D84FEA83
:102010004003B3F17F4F0CD80ED14FEAD07CB2F120
:102020007F4F0CEB4C0C0CF1020C08BF4CEBD17C3D
:1020300004E04FF0080C01E04FEAD17C0CEB4C03BC
:1020400024FA03F404F00704B4F1040C06D20EEBF6
:10205000840CBDE810404CF0010C6047DFE80CF048
:10206000070802024FF00040A0F5800010BD0846AE
:10207000420018BFD2F1807288BF00F0004010BD4E
:10208000FF2141EAD050C0057047000090EA010FDF
:1020900048BF81F000413FF578AE421A04D882F083
:1020A0000042A0EB020011444FEAD0524FF07F4CA7
:1020B0001CEA410FA2EBD15318BF9CEA026F4AD031
:1020C0004FF0004C4CEA00204CEA012121FA03FCBD
:1020D000B0EB0C0C0FD412F0FE0F36D05FEA4C00C0
:1020E0001DD5001240EBC25038BF70471CF03F0FA7
:1020F00018BF70470BE0A2F101025FEA1C2040EB21
:10210000C25038BF70471CF07F0F18BF7047C3F133
:102110002003994014BF401E20F001007047800842
:102120004FEA122308BF7047B0FA80FCA2EB0C0202
:10213000CCF1280C60FA0CF093EA122F04BF00EBEC
:10214000C25070474FEAC3707047130A5FEADC1051
:1021500008BF7047F6E79CEA026F04D010EA5C0FF4
:1021600008BF0020704710B5FFF744FF40DFF63E80
:1021700081F000407047FEF7EDBA00000240000019
:10218000000000A00000000005400000000000C8A2
:10219000000000000C4000000000409C0000000017
:1021A000194000000020BCBE0000000034400000C8
:1021B000BFC91B8E00000004B5400000504BCFD0BB
:1021C0006607E2CF010000006C4100003E8251AA88
:1021D000DFEEA73401000000D9420000DCB5A0E228
:1021E0003A301F97FFFFFFFFB4450000FD25A0C850
:1021F000E9A3C14FFFFFFFFFFF3F00000000008089
:1022000000000000FF3F0000000000800000000010
:102210004C2200080000002008000000FC0000081C
:102220005422000808000020500700001801000890
:102230001C00000043000000F8FFFFFF0C0000003E
:102240000E0000000F0000002E0000000000000043
:0422500000127A00FE
:04000005080001C12D
:00000001FF
